:020000040800F2
:1000000040120020E10100084914000835100008E2
:1000100095130008DD0900088B2600080000000089
:10002000000000000000000000000000091E0008A1
:10003000ED0B00080000000031170008F90100086E
:10004000FB010008FB010008FB010008FB010008A0
:10005000FB010008FB010008FB010008FB01000890
:10006000FB010008FB010008FB010008FB01000880
:10007000FB010008FB010008FB010008FB01000870
:10008000FB010008FB010008FB010008FB01000860
:10009000FB010008FB010008FB010008FB01000850
:1000A000FB010008FB010008FB010008B921000862
:1000B0007D2200089D220008FB010008FB010008CA
:1000C000FB010008FB010008FB010008FB01000820
:1000D000FB01000889260008FB010008FB0100085D
:1000E000FB010008FB010008FB01000800F002F81A
:1000F00000F066F80AA090E8000C82448344AAF15C
:100100000107DA4501D100F05BF8AFF2090EBAE859
:100110000F0013F0010F18BFFB1A43F0010318473B
:10012000EC3200000C33000010F8013B0A4413F0DD
:10013000030408BF10F8014B1D1108BF10F8015B44
:10014000641E05D010F8016B641E01F8016BF9D133
:10015000002D15D010F8014B03F00C030C2BA1EB74
:1001600004040ABF10F8013BA4EB8314A4EB03249E
:1001700005F1010314F8016B5B1E01F8016BF9D561
:10018000914238BF10F8013BD1D3704700230024BF
:1001900000250026103A28BF78C1FBD8520728BF97
:1001A00030C148BF0B607047642900F07B8078291C
:1001B00000F0B480002070471FB51FBD10B510BD02
:1001C00000F01DFA1146FFF7F7FF02F0ADFA00F05C
:1001D0003BFA03B4FFF7F2FF03BC00F043FA000060
:1001E0000948804709480047FEE7FEE7FEE7FEE7CB
:1001F000FEE7FEE7FEE7FEE7FEE7FEE70448054907
:10020000054A064B70470000191F0008ED00000862
:10021000400C002040120020400E0020400E002024
:100220000FB41CB50C0007AA009001D02044401E5A
:10023000074B7B4469460190069800F0C0F9002CFA
:1002400003D06946002000F0CDF91CBC5DF814FB1A
:10025000B903000070B5044685690068C10601D580
:10026000302600E02026C00707D070BDD4E9012168
:1002700030469047206A401C20626D1EF6D570BD46
:1002800070B5044685690078C00707D170BDD4E910
:10029000012120209047206A401C20626D1EF6D567
:1002A00070BD00002DE9F041064600241068752954
:1002B000314616A510D0AFF30080002802DA404284
:1002C00013A507E031688A0701D512A502E04907A6
:1002D00004D511A5012401E0AFF3008000210A221A
:1002E00006F1240709E0B0FBF2FCB0FBF2F302FBDD
:1002F0001C00303078541846491C0028F3D123469E
:100300002A463046BDE8F04100F0FAB8000000008F
:100310002D0000002B0000002000000070B50446F6
:100320000D4621461068AFF300802188090502D5EB
:100330000F4A7A4402E00E4A7A440E32002104F158
:10034000240305E000F00F060009965D5E54491C89
:100350000028F7D120780023000704D5702D02D0A3
:1003600009B1022311322046BDE8704000F0C8B840
:10037000803000002DE9F05F894604464FF0000A06
:10038000DFF824B1FB44C0F820A02046E16888478C
:1003900000287DD0252806D0D4E901219047206A85
:1003A000401C2062F1E700255F462046E16888474F
:1003B0002028064607DB312E05D2B81910F8200C8C
:1003C00008B10543F1E7A80701D525F00405C4F8F5
:1003D0001CA00027C4F818A02A2E09D0304602F02D
:1003E00056F938B304EB8708303EC8F8186019E0B6
:1003F00059F8041B204604EB87029161E1688847A5
:10040000012F064618D1E069002820DA25F02005E2
:100410001DE0D8F8180000EB800006EB40003038F3
:10042000C8F818002046E1688847064602F02FF910
:100430000028EED1012F0AD02E2E08D12046E168E7
:1004400088477F1C0646022F45F02005C4DBA069C3
:10045000002803DA404245F00105A061E80701D019
:1004600025F01005A6B1A6F14100192802D82036C2
:1004700045F400654A463146204625604D46FFF763
:1004800093FE60B1012807D0ED1D25F0070000E0C4
:1004900007E000F1080978E705F1040975E730463F
:1004A0007AE7206ABDE8F09F563000004FF0000266
:1004B00000B5134694469646203922BFA0E80C505A
:1004C000A0E80C50B1F12001BFF4F7AF090728BF35
:1004D000A0E80C5048BF0CC05DF804EB890028BFB1
:1004E00040F8042B08BF704748BF20F8022B11F0DA
:1004F000804F18BF00F8012B704770477047704756
:100500002DE9F0470D4699469246044600F124082D
:100510000168880604D5E06921F01001216000E03F
:100520000120A84201DD471B00E00027A1697A19DC
:1005300002EB0900081AA0612078C00602D4204608
:10054000FFF788FE002608E0D4E901211AF806002A
:100550009047206A401C761C20624E45F4DB2078D0
:10056000C0060AD52046FFF775FE06E0D4E9012152
:1005700030209047206A401C2062381EA7F10107F6
:10058000F4DC07E0D4E9012118F805009047206A5F
:10059000401C2062281EA5F10105F3DC2046FFF770
:1005A0006FFE2078000602D50220BDE8F08701200A
:1005B000FBE7000001694A1C02610878704700B53A
:1005C0008FB0CDE901310021059105497944CDE98C
:1005D000031011466846FFF7CDFE0FB000BD0000C6
:1005E000E5FFFFFF0A6802F8010B0A607047D1E9D6
:1005F00000239A4202D2531C0B601070704775465C
:1006000000F02CF8AE4605006946534620F007007E
:10061000854618B020B5FFF7F1FDBDE820404FF04A
:1006200000064FF000074FF000084FF0000B21F0DC
:100630000701AC46ACE8C009ACE8C009ACE8C009A9
:10064000ACE8C0098D46704710B50446AFF3008092
:100650002046BDE81040FFF7BCBD000000487047D1
:10066000E00B002001491820ABBEFEE72600020087
:10067000704721B1826842F00102826003E0826823
:1006800022F001028260704721B1826842F48072D8
:10069000826003E0826822F480728260704700000A
:1006A00000B591B00121084601F050F8334800F040
:1006B000D9F933480690334807900020089001206C
:1006C000099000200A900B904FF480700C908000ED
:1006D0000D9020200E9000020F900020109006A98F
:1006E000264800F065FA0121244800F0AFF9012105
:1006F000480201F04BF80020019001208DF808001D
:100700008DF809004FF46020039000200490012030
:100710008DF8140001A91A484C3800F05BF8052345
:100720000122002116484C3800F07CF801211448C1
:100730004C38FFF7A9FF012111484C38FFF799FF0A
:100740000F484C3800F0CAF800BF0D484C3800F094
:1007500037F80028F9D10A484C3800F0CFF800BF2C
:1007600007484C3800F022F80028F9D1012104484C
:100770004C3800F0B8F811B000BD0000080002408D
:100780004C2401400800002008B50121042000F09D
:10079000FDFF0120ADF8000000208DF80300694640
:1007A000014800F080FA08BD000801400146002021
:1007B0008A6802F004020AB1012000E000207047BC
:1007C000014600208A6802F008020AB1012000E018
:1007D0000020704730B502460020002350680F4CBF
:1007E00020400D790C6844EA05242043506090684D
:1007F0000B4C2040D1E902542C434D7944EA450486
:1008000020439060D06A20F470000C7C641EE4B237
:10081000234340EA0350D06230BD0000FFFEF0FFEA
:10082000FDF7F1FFF0B504460D4600200021092D2B
:1008300011DDE068A5F10A0606EB4607072606FA71
:1008400007F18843A5F10A0606EB460603FA06F10E
:100850000843E0600CE0206905EB4507072606FA2F
:1008600007F1884305EB450603FA06F108432061CA
:10087000072A0FDA606B561E06EB86071F2606FA5C
:1008800007F18843561E06EB860605FA06F1084373
:10089000606322E00D2A0FDA206BD61F06EB860775
:1008A0001F2606FA07F18843D61F06EB860605FACF
:1008B00006F10843206310E0E06AA2F10D0606EBA2
:1008C00086071F2606FA07F18843A2F10D0606EBFC
:1008D000860605FA06F10843E062F0BD816841F042
:1008E00008018160704721B1826842F4A0028260F1
:1008F00003E0826822F4A00282607047816841F0C0
:1009000004018160704710B5002302E002445C1CC2
:10091000E3B28B42FADBB2FBF1F210BD10B501205D
:1009200000F044FF002000F041FF10BD08B5014673
:100930000020009003480090009808440090009820
:10094000008808BD006C004008B500220092044AEF
:100950000092009A02440092009A116008BD0000C3
:10096000006C004010B50446A07800F07F0000281D
:1009700010DD2188481C2080B1F57A7F0ADB002039
:100980002080A078401EA17860F30601A1704FF48A
:10099000FA706060606800280AD96068401E606074
:1009A000A0786FEAD010A17860F3C711A17003E0BE
:1009B000A07820F08000A070A078C00928B14FF482
:1009C0000051054800F04BFA04E04FF40051024892
:1009D00000F047FA10BD00000010014000BFFEE724
:1009E00010B58AB00446142105A8FFF75FFDA07971
:1009F0006179E278A378CDE90032CDE9021023884D
:100A00000CA2122105A8FFF70BFCE07900EBD071D6
:100A10004910A0EB410119B93A208DF8210002E0FC
:100A200020208DF8210005AA0021084600F057FE7D
:100A30000AB010BD25642D253032642D2530326476
:100A400020253032643A25303264000021B102683A
:100A500042F00102026004E002684FF6FE731A40A1
:100A60000260704701684FF6FE721140016000217C
:100A7000016041608160C1604B49884208D14A49A8
:100A80000839496841F00F01474A083A51608AE045
:100A900045491431884208D143490839496841F031
:100AA000F001414A083A51607DE03F4928318842CF
:100AB00008D13D490839496841F470613A4A083A19
:100AC000516070E038493C31884208D136490839D4
:100AD000496841F47041344A083A516063E0324950
:100AE0005031884208D130490839496841F47021B1
:100AF0002D4A083A516056E02B496431884208D1AA
:100B000029490839496841F47001274A083A516077
:100B100049E025497831884208D123490839496894
:100B200041F07061204A083A51603CE01F49884218
:100B300006D1011F096841F00F01021F116032E068
:100B40001A491431884208D11849091F096841F02F
:100B5000F001164A121F116025E01449283188421D
:100B600008D11249091F096841F470610F4A121F28
:100B7000116018E00D493C31884208D10B49091F2A
:100B8000096841F47041094A121F11600BE00749DE
:100B90005031884207D10549091F096841F4702185
:100BA000024A121F11607047080002400804024008
:100BB00010B50022026847F6F0739A430C6A8B68FE
:100BC00023430C6923434C6923438C692343CC6939
:100BD00023434C6A23438C6A23431A430260CB6845
:100BE00043600B6883604B68C36010BD70470000B2
:100BF0000549096821F01001034A1160114609688E
:100C000001431160704700000020024001460020AF
:100C1000034A106800F03800084310607047000075
:100C200000200240F0B503461646002400220027AB
:100C3000701EC5B231F81400984201DC2046F0BDA8
:100C400031F81500984201DB2846F8E722E06019E8
:100C500000EBD07CCCF3470231F81200984200D16F
:100C60001AE031F81200984205DD501C31F81000EE
:100C7000984200DA10E031F81200984201DA154685
:100C800000E01446384607F1010C0CF0FF07B042B3
:100C900000DD01E0AC42DADB00BFAC4201DD002048
:100CA000CDE71046CBE72DE9F041024600250026AE
:100CB000002000230024002791F803C00CF00F054A
:100CC00091F803C00CF0100CBCF1000F03D091F8A8
:100CD00002C04CEA050591F800C0BCF1000F31D00C
:100CE000146800202BE04FF0010C0CFA00F3B1F86F
:100CF00000C00CEA03069E4220D183004FF00F0C87
:100D00000CFA03F7BC4305FA03FC4CEA040491F81F
:100D100003C0BCF1280F06D14FF0010C0CFA00FC07
:100D2000C2F814C00AE091F803C0BCF1480F05D125
:100D30004FF0010C0CFA00FCC2F810C0401C08284F
:100D4000D1D31460B1F800C0BCF1FF0F34DD54689A
:100D500000202EE000F1080C4FF0010808FA0CF317
:100D6000B1F800C00CEA03069E4221D183004FF087
:100D70000F0C0CFA03F7BC4305FA03FC4CEA04041D
:100D800091F803C0BCF1280F05D100F1080C08FA56
:100D90000CF8C2F8148091F803C0BCF1480F07D1D9
:100DA00000F1080C4FF0010808FA0CF8C2F81080A6
:100DB000401C0828CED35460BDE8F081F0B50A4647
:100DC000002300240021002500F00046B6F1004F6A
:100DD00002D11D4EF16901E01B4E7168C0F303455D
:100DE00083B200F44016B6F5401F08D121F07061BF
:100DF000154E766826F07066134F7E6012E000F4A0
:100E00008016B6F5801F06D1032606FA05F4A14325
:100E100041F0706106E0460D360103FA06F6B14373
:100E200041F0706122B1460D360103FA06F63143F6
:100E300000F00046B6F1004F02D1034EF16101E02F
:100E4000014E7160F0BD000000000140024600202C
:100E500093680B400BB1012000E000207047416116
:100E60007047016170472DE9F05F06460F469046D6
:100E70001C46DDF828A04FF0000BE11704EB517180
:100E8000C910A4EBC10131B92046E11704EB51713F
:100E9000C1F3C70506E02046E11704EB5171C91004
:100EA000491CCDB23D4615E02946304600F000FC15
:100EB000B1460BE059460BF1010B1AF80100012174
:100EC00000F028FC09F1010000F0FF09C145F1DB49
:100ED000681CC5B2A542E7DBBDE8F09F2DE9F041F3
:100EE00080460F461546002415E03819C1B2404629
:100EF00000F0DEFB00260AE004EB4501084A02EBA5
:100F00000111885D012100F005FC701CC6B2102E95
:100F1000F2DB601CC4B2022CE7DBBDE8F08100000C
:100F2000B63000082DE9F04180460F461646272EC0
:100F30001BDC002416E03819C1B2404600F0B8FBB3
:100F400000250BE0042101FB0641174A02EB0111C9
:100F5000485D012100F0DEFB681CC5B2102DF1DBFD
:100F6000601CC4B2042CE6DB1CE0002418E0381935
:100F7000C1B2404600F09CFB00250DE0A6F128011F
:100F8000C9009C312144084A02EB0111485D01214E
:100F900000F0C0FB681CC5B2102DEFDB601CC4B2B2
:100FA000082CE4DBBDE8F081CE0100202DE9F047FC
:100FB00006460D4617464FF00008A7F1200000F046
:100FC000FF087F2E02DD0026681CC5B2A946E8177F
:100FD00005EB5070C0F3C701304600F069FB0024F8
:100FE00008E0134901EB0811085D012100F092FBB4
:100FF000601CC4B2082CF4DB05F108094FEAE97063
:1010000009EB5070C0F3C701304600F051FB0024DB
:101010000AE0074901EB081204F10801505C0121C4
:1010200000F078FB601CC4B2082CF2DBBDE8F0874E
:10103000362C000800BFFEE708B50121042000F0AF
:10104000A5FB0121084600F0A1FB4FF48070ADF82C
:10105000000048208DF8030003208DF80200694647
:101060000148FFF720FE08BD0008014010B5FFF75A
:10107000E3FF10BD00B5024800F004F800BD000019
:101080009C0B0020817801F0400139B34168090EC2
:10109000817441680A0CC2748188090A017402795A
:1010A0004274827C0E49C97CC943C9B28A4209D1C3
:1010B000817C39B9027C417CC943C9B28A4201D1E1
:1010C000017C4170417819B1817801F0800129B922
:1010D000817821F04001817000210170704700008B
:1010E0009C0B0020817801F08001E1B1817821F032
:1010F00010018170817801F00F0119B9817841F0F8
:1011000040018170817801F00F010E2903DA8178A6
:10111000491C817007E0817821F08001817081781D
:1011200001F0F0018170704710B58EB0044628219F
:1011300004A8FFF7BBF9607C217CE27CCDE90021AB
:101140000290A37C19A2242104A8FFF769F80422C5
:1011500006210C20FFF7C2FE052206211A20FFF708
:10116000BDFE062211462A20FFF7B8FE07220621FF
:101170003A20FFF7B3FE082206214A20FFF7AEFE11
:10118000092206215A20FFF7A9FE0922062168201C
:10119000FFF7A4FE092206217820FFF79FFE04AA8C
:1011A0001E21102000F09BFA0EB010BD25303258E1
:1011B0002D253032582D253032582D25303258000B
:1011C00010B504464FF480713B48FFF73FFE60B115
:1011D00002213A4801F06DF90021384801F072F916
:1011E000A07840F01000A07065E0344801F0EEF8FF
:1011F000334988600021314801F05BF9304880684C
:1012000041F2680188420DD92D48806841F25C2185
:10121000884207D2A07840F08000A07000202849C2
:10122000087044E0A07800F0100050B3A07800F0FF
:10123000800030B322488068B0F5967F0DD92048F1
:101240008068B0F5487F08D21D48406840001C49BE
:10125000486008464068486029E019488068B0F551
:10126000AF6F0FD916488068B0F5E16F0AD2144805
:1012700040684000124948600846406840F001005C
:10128000486014E00E48806840F6980188420ED904
:101290000B48806840F62821884208D20848007828
:1012A000401C07490870A07800F0F000A070A078FA
:1012B00020F01000A07010BD00080140002C01407B
:1012C0009C0B002010B5014600220846CB1701EB0D
:1012D00093739B10A1EB83032BB9642391FBF3F46D
:1012E00003FB141333B94FF4C87391FBF3F403FBFE
:1012F00014130BB9012200E00022104610BD0000BB
:1013000008B50121042000F041FA0121082000F075
:101310003DFA0121084600F039FA01210F48FFF794
:101320004DFD4FF40040ADF8000003208DF80200A1
:1013300010208DF8030069460948FFF7B4FC4FF40C
:101340000060ADF8000003208DF8020010208DF839
:10135000030069460348FFF7A6FC08BD0002300001
:1013600000080140000C014010B50A234FF4FA7246
:101370000121024801F0B4F910BD0000B00B0020BB
:1013800038B5044608233022022100200094FFF7DC
:101390006AFD38BD00BFFEE710B52548FFF720FB0A
:1013A00024484078A22802D101202349087021480E
:1013B0004078222805D102201F4908704FF496700A
:1013C00048601D48007820B1012803D002282CD1A4
:1013D0000FE02BE01948007820B100F091F80020D0
:1013E000164908701648FFF7CBFF164801F02EF992
:1013F0001CE011484068401E0F4948600A21B0FBBC
:10140000F1F000280BD90D48007820B900F078F8E9
:1014100001200A4908700748FFF786FE04E0012012
:10142000054908700549087000E000BF00BF10BD05
:10143000240100209C0B0020900B0020980B002022
:10144000963200080C000020704710B5FFF79CF999
:10145000FFF726F910BD08B54FF4A06000F046F87C
:1014600003208DF8000001208DF801008DF80200A6
:101470008DF80300684600F001F808BD70B5002142
:1014800000230F22C47804B3154C246804F4E064EC
:10149000C4F5E064210AC1F10403CA40447804FAA7
:1014A00003F184781440214309010E4C0678A155BC
:1014B000047804F01F050124AC4005786D11AD00DF
:1014C00005F1E025C5F8004109E0047804F01F05A6
:1014D0000124AC40044D0678761145F8264070BDD5
:1014E0000CED00E000E400E080E100E0024901438F
:1014F000024A1160704700000000FA050CED00E0A0
:1015000070B5002419E004F1B001C8B2002100F068
:1015100001F90021084600F0FDF80021102000F03C
:10152000F9F8002505E00121002000F0F3F8681C1F
:10153000C5B2802DF7DB601CC4B2082CE3DB70BDA4
:1015400008B50121042000F021F93C20ADF800008D
:1015500003208DF8020010208DF8030069460A4828
:10156000FFF7A1FB20210848FFF77BFC102106486C
:10157000FFF777FC08210448FFF773FC04210248B9
:10158000FFF76FFC08BD00000008014010B5FFF731
:10159000D7FF20214548FFF764FC0A2001F0CCF872
:1015A00008214248FFF75BFC0A2001F0C5F808213A
:1015B0003E48FFF756FC0021AE2000F0ABF80021BA
:1015C000084600F0A7F80021102000F0A3F8002141
:1015D000402000F09FF80021812000F09BF80021BE
:1015E000FF2000F097F80021A12000F093F80021DF
:1015F000C82000F08FF80021A62000F08BF8002111
:10160000A82000F087F800213F2000F083F8002197
:10161000D32000F07FF80021084600F07BF800217D
:10162000D52000F077F80021802000F073F8002129
:10163000D92000F06FF80021F12000F06BF80021B4
:10164000DA2000F067F80021122000F063F8002192
:10165000DB2000F05FF80021402000F05BF8002163
:10166000202000F057F80021022000F053F800215C
:101670008D2000F04FF80021142000F04BF80021DD
:10168000A42000F047F80021A62000F043F8002134
:10169000AF2000F03FF80021AF2000F03BF8FFF74B
:1016A0002FFF0021084600F003F810BD000801409C
:1016B00070B504460D4605F1B001C8B2002100F036
:1016C00029F8102141EA1410002100F023F804F059
:1016D0000F0141F00100002100F01CF870BD2DE960
:1016E000F04104460F46154600260EE0AA5D394635
:1016F0002046FFF75BFC04F10800C4B2782C02DD41
:101700000024B81CC7B2701CC6B2A85D0028EDD179
:10171000BDE8F08170B504460D462946204600F02C
:10172000C9FA70BD014908627047000000000E420E
:101730007047000001460020034A506820F44040F2
:1017400008435060704700000010024029B1064A6B
:1017500052690243044B5A6104E0034A52698243CE
:10176000014B5A61704700000010024029B1064A3F
:10177000D2690243044BDA6104E0034AD26982432E
:10178000014BDA61704700000010024029B1064A9F
:1017900092690243044B9A6104E0034A92698243CE
:1017A000014B9A6170470000001002400149086037
:1017B00070470000400442420149C864704700007D
:1017C000000042420F48006840F001000D490860E7
:1017D000084640680C4908400A49486008460068C5
:1017E0000A490840074908600846006820F480203C
:1017F00008600846406820F4FE0048604FF41F006F
:1018000088607047001002400000FFF8FFFFF6FEFE
:1018100010B501460022002300204A11012A02D1FE
:10182000094C236806E0022A02D1074C236A01E032
:10183000054C636A01F01F02012494401C400CB166
:10184000012000E0002010BD001002400248406866
:1018500000F00C007047000000100240014600201C
:10186000034A506820F0F0000843506070470000C1
:10187000001002401149096821F480310F4A1160BB
:101880001146096821F480211160B0F5803F03D032
:10189000B0F5802F0ED106E00849096841F4803187
:1018A000064A116007E00549096841F4A021034A8E
:1018B000116000E000BF00BF704700000010024050
:1018C00000210B4A11700A4A203A82F820100128A0
:1018D00002D0042808D103E00121054A117004E078
:1018E0000521034A117000E000BF00BF70470000EF
:1018F0002010024001460020034A506820F4E060B6
:10190000084350607047000000100240014600206C
:10191000034A506820F4605040EAC10050607047AC
:101920000010024001490866704700000000424272
:1019300002460020044B586820F47C1042EA010360
:101940001843014B5860704700100240014908607D
:10195000704700003C0442420249096A0143014ABF
:10196000116270470010024001460020034A50688F
:1019700020F0030008435060704700000010024050
:1019800038B5002000900024002500BF3120FFF76B
:101990003FFF05460098401C00900098B0F5A06FEE
:1019A00001D0002DF2D03120FFF732FF08B1012421
:1019B00000E00024204638BD10B501214FF0C05092
:1019C000FFF7D4FE0120FFF7ADFEFEF7A7FF0120D1
:1019D000FFF776FF00BF4120FFF71AFF0028FAD07B
:1019E0004FF48070FFF7B8FF0120FFF7AFFF00F062
:1019F0004DF900F041F947F6FF7000F025F900F0CD
:101A00003BF900F039F910BD0348008840F01000A0
:101A100001490880704700000428004003480088FE
:101A20004FF6EF71084001490880704704280040D4
:101A30002DE9F041054600270024002600F068F853
:101A400007463048B7FBF0F42F480088A04237D053
:101A50002D490C8040F2B2760EE03046FFF732FCA2
:101A600030B1B4F5B77F02D3A4F5B77402E006E055
:101A7000A4F26D14701C86B2B4F5B67FEDD800BF29
:101A80002E80002615E02888FFF71CFC30B1012EBF
:101A900004D11D2C01D31D3C09E00CE01B48805DE6
:101AA000A04203D81948805D241A00E003E0701CAE
:101AB00086B21C2CE7D200BF701CA870601CE870B6
:101AC0001048B7FBF0F100FB11744FF46160B4FBF8
:101AD000F0F068714FF46160B4FBF0F100FB11406D
:101AE0003C21B0FBF1F0A8714FF46160B4FBF0F160
:101AF00000FB11403C21B0FBF1F201FB1200E87148
:101B0000BDE8F081805101002C010020622700080F
:101B1000002103480188001F008841EA0040704707
:101B20001C28004010B50420FEF700FF41F216010A
:101B300088420AD0FFF740FF094800F013F841F24D
:101B400016010420FEF700FF03E000F09FF800F00C
:101B500093F8FFF780FC0248FFF76AFF10BD000012
:101B60002401002070B504460025208840F2B2719F
:101B7000884204DB208840F63301884201DD0120E1
:101B800070BD40F2B2760AE03046FFF79BFB10B121
:101B90002148054401E021480544701C86B2208894
:101BA000B042F1DCA078401EA070002612E01C4874
:101BB000805D40F2A321484305EBC0152088FFF764
:101BC00081FB20B1012E02D11648054400E000BF80
:101BD000701C86B2A078B042E9DCE078401E40F28A
:101BE000A321484305EBC0156079C0EB4011C1EB60
:101BF000002005EB0015A079C0EB001005EB800577
:101C0000E0790544284600F011F800F035F8064860
:101C1000FFF70EFF0020B3E70085E2018033E1010A
:101C200062270008805101002401002000B502460F
:101C3000FFF7EAFE100C03490880091D0A80FFF730
:101C4000EDFE00BD1828004000B50246FFF7DCFE9F
:101C5000C2F3034003490880091D0A80FFF7DEFE36
:101C600000BD00000828004010B50248FFF7E0FE64
:101C700010BD00002401002000BF0348008800F0D0
:101C800020000028F9D07047042800400748008849
:101C90004FF6F77108400549088000BF03480088E7
:101CA00000F008000028F9D0704700000428004028
:101CB0007047000070B504460D461DB90421184850
:101CC000FFF7CDF8012D03D104211548FFF7C9F81E
:101CD00020211348FFF7C3F8322000F036FD00261C
:101CE0001AE004F0800020B110210D48FFF7B9F888
:101CF00003E010210A48FFF7B2F820210848FFF757
:101D0000AEF8322000F021FD20210548FFF7A9F8A8
:101D10006006040E701CC6B2082EE2DB70BD000027
:101D20000008014010B5FFF74DFD4FF48030FFF77C
:101D3000A1FDFFF725FE012839D10020FFF78EFD18
:101D40000020FFF7E3FD0020FFF7D4FD0220FEF79F
:101D50005DFF1020FEF74CFF4FF4E0114FF4803090
:101D6000FFF7E6FD0120FFF7DDFD4FF40040FFF730
:101D7000E1FC00BF3920FFF74BFD0028FAD002201C
:101D8000FFF7F2FD00BFFFF761FD0828FBD101203E
:101D9000FFF712FD01210220FFF7E8FC012144F2C8
:101DA0001D20FFF7F3FC01210846FFF7CFFC10BD13
:101DB00010B500201149087019E011480F49097841
:101DC00000EB0110007868B10D490C4A127801EB64
:101DD0000211C868804700200949084A127801EBBF
:101DE0000211087005480078401C04490870034837
:101DF0000078044909788842DFDB10BD0501002026
:101E0000B400002004010020704710B500F002F873
:101E100010BD00000CB50020019000903348006810
:101E200040F480303149086000BF3048006800F459
:101E3000003000900198401C0190009818B901985A
:101E4000B0F5A06FF1D12948006800F4003010B15E
:101E50000120009001E0002000900098012843D16B
:101E60002348006840F010002149086008460068D7
:101E700020F0030008600846006840F00200086097
:101E80001A48406819494860084640684860084652
:101E9000406840F4806048600846406820F47C1048
:101EA00048600846406840F4E8104860084600680A
:101EB00040F08070086000BF0C48006800F00070BF
:101EC0000028F9D00948406820F00300074948601D
:101ED0000846406840F00200486000BF0348406880
:101EE00000F00C000828F9D10CBD000000100240E1
:101EF0000020024010B5FFF715FF00F021FAFFF7B0
:101F0000B5F800F073F9FFF70DFEFFF7F9F9FFF7E9
:101F10009CFAFFF73BFB10BD10B51348006840F07A
:101F200001001149086008464068104908400E4900
:101F30004860084600680E4908400B49086008469A
:101F4000006820F4802008600846406820F4FE0005
:101F500048604FF41F008860FFF757FF4FF00060A4
:101F60000449086010BD0000001002400000FFF8A6
:101F7000FFFFF6FE08ED00E0F0B50C461546002226
:101F80000021068C4FF6FE773E400684028B018CC2
:101F90004FF60C7632407E1C06EA03162E4332437F
:101FA000104EB0420ED0104EB0420BD0B0F1804F68
:101FB00008D00E4EB04205D00D4EB04202D00D4EAC
:101FC000B04206D14FF6FD76314044F00106314370
:101FD00005E04FF6F576314044F0010631430283C7
:101FE0000184F0BD002C0140003401400004004099
:101FF00000080040000C0040F0B50C4615460022D9
:1020000000210026078C4FF6EF7C07EA0C070784B7
:10201000028B018C4FF6FF7707EA041640F6FF4764
:102020003A404FF6FF7707EA03373A434FF6FF7718
:1020300007EA05273A43114FB8420ED0104FB84275
:102040000BD0B0F1804F08D00E4FB84205D00E4FE4
:10205000B84202D00D4FB84206D14FF6DF77394073
:1020600046F01007394305E04FF65F77394044F0FA
:102070001007394302830184F0BD0000002C0140A9
:10208000003401400004004000080040000C004003
:10209000F0B50C461546002200210026078C4FF6AD
:1020A000FF6C07EA0C070784828B018C4FF6FF77E1
:1020B00007EA04264FF60C773A404FF6FF7707EA17
:1020C00003172F433A43114FB8420ED0104FB84276
:1020D0000BD0B0F1804F08D00E4FB84205D00E4F54
:1020E000B84202D00D4FB84206D14FF6FF573940E3
:1020F00046F48077394305E04FF2FF57394044F406
:102100008077394382830184F0BD0000002C0140B8
:10211000003401400004004000080040000C004072
:10212000F0B50C461546002200210026078C4EF61D
:10213000FF7C07EA0C070784828B018C4FF6FF7740
:1021400007EA043640F6FF473A404FF6FF7707EAC2
:1021500005273A434FF6FF7707EA03373A43114F13
:10216000B8420ED0104FB8420BD0B0F1804F08D01B
:102170000E4FB84205D00E4FB84202D00D4FB842B4
:1021800006D14DF6FF77394046F48057394305E0D4
:1021900047F6FF57394044F480573943828301841E
:1021A000F0BD0000002C014000340140000400405C
:1021B00000080040000C004010B50121094800F063
:1021C00008F910B10848FEF78DFF0221054800F01C
:1021D00000F910B10448FEF7F3FF0321014800F0B5
:1021E000E6F810BD002C01409C0B002000B587B024
:1021F0000121C802FFF7CAFA42F21070ADF81400CC
:102200004720ADF810000020ADF81600ADF8120020
:102210008DF8180004A9184800F082F90020ADF8E4
:102220000000ADF802000120ADF804000020ADF878
:1022300006000320ADF8080069460F4800F0DAF800
:1022400001210D4800F0B0F8012203210A4800F0F6
:1022500027F90121084800F0ADF81B208DF80C008B
:1022600001208DF80D008DF80E008DF80F0003A8E9
:10227000FFF704F907B000BD002C014010B50121A3
:10228000880700F0A6F830B10348FEF76BFB012188
:10229000880700F08CF810BD0000002010B5012167
:1022A000234800F096F8002840D00020214908700B
:1022B00032E021481F49097800EB0110406830B333
:1022C0001D481C49097800EB01104068401E1A495E
:1022D000184A127801EB021148601748154909782D
:1022E00000EB0110406890B901201349114A12789F
:1022F00001EB0211087010480E49097800EB01103B
:1023000080680D490B4A127801EB021148600948B8
:102310000078401C0749087006480078074909788A
:102320008842C6DB0121024800F041F810BD0000E0
:102330000004004006010020B40000200401002039
:102340001FB501210220FFF711FA4FF47A70ADF8A2
:1023500008004720ADF804000020ADF80A00ADF8F1
:10236000060001A90F4800F0DBF801210D4800F03C
:102370001BF8012211460B4800F092F80121094890
:1023800000F018F81D208DF8000000208DF80100E5
:1023900001208DF802008DF803006846FFF76EF803
:1023A0001FBD000000040040CA4302827047CA43B8
:1023B0000282704721B1028842F00102028004E0EB
:1023C00002884FF6FE731A40028070470146888EDD
:1023D000704730B50246002000230024158A05EA24
:1023E0000103958905EA010413B10CB1012000E055
:1023F000002030BD70B505460C46244885420ED0FD
:10240000234885420BD0B5F1804F08D02148854242
:1024100005D02148854202D02048854200D100E005
:1024200000BF208850B92389A28861882846FFF719
:10243000A3FDE188284600F047F825E0208804281D
:102440000AD12389A28861882846FFF7D5FDE18853
:10245000284600F042F817E0208808280AD123898E
:10246000A28861882846FFF713FEE188284600F01D
:1024700041F809E02389A28861882846FFF750FEC9
:10248000E188284600F03FF870BD0000002C0140B4
:10249000003401400004004000080040000C0040EF
:1024A0001AB183890B43838102E083898B43838143
:1024B00070470A460021018C4FF6FD731940114305
:1024C0000184704781847047028B4FF6F3731A4082
:1024D0000283028B0A4302837047028B4FF2FF3361
:1024E0001A400283028B4FF6FF7303EA01231A435B
:1024F00002837047828B4FF6F3731A408283828B7C
:102500000A4382837047828B4FF2FF331A408283E3
:10251000828B4FF6FF7303EA01231A4382837047CD
:10252000002202881D4B98420ED01D4B98420BD0C2
:10253000B0F1804F08D01B4B984205D01A4B9842FF
:1025400002D01A4B984204D14FF68F731A404B8831
:102550001A43174B984207D0164B984204D04FF6B7
:10256000FF431A40CB881A4302808B8883850B88EF
:1025700003850A4B98420BD0094B984208D00E4B6A
:10258000984205D00D4B984202D00D4B984201D194
:102590000B7A03860123838270470000002C0140E0
:1025A000003401400004004000080040000C0040DE
:1025B0000010004000140040004001400044014071
:1025C0000048014010B504460A211A480088FEF769
:1025D0009AF91848008840F2433188420CDB1548CC
:1025E000008840F63C41884206DC3C2212491148F2
:1025F0000088FEF717FB60600E48008840F66141D6
:1026000088420DDB0B48008840F67A61884207DC7F
:1026100014220949283907480088FEF703FB606047
:102620000448008810B10120207001E000202070D3
:1026300010BD0000080000203C00002000B502484A
:10264000FFF7C0FF00BD00000C00002070B504467D
:102650000A21606890FBF1F0C5B22A4604214620A9
:10266000FEF760FC0A21606890FBF1F201FB1200AA
:10267000C5B22A4604215820FEF754FC0C2204213E
:102680006A20FEF74FFC70BD704700BFFEE7303890
:102690000A2801D2012070470020704770B5054616
:1026A0000C462046A84770BD10B50446217B024861
:1026B000FFF7F4FF10BD0000BD26000810B504466A
:1026C0002CB14FF400610548FEF7C9FB04E04FF45C
:1026D00000610248FEF7C5FB10BD0000000C014080
:1026E0002DE9F04104460F4615461E466771A56068
:1026F0003146204600F002F8BDE8F08170B504468E
:102700000D46607950B1A068B0FBF5F1E068401C5F
:10271000B0FBF1F201FB1200E06001E00020E0609C
:102720002046FFF7C1FF70BDFFF7E4FB03E0FFF7B2
:102730003FFBFFF7BDFAFAE7002100E0491C40F239
:10274000BC7242438A42F9D87047002106E0002259
:1027500000E0521C8242FCD34B1CD9B20229F6DBAA
:1027600070471F1C1F1E1F1E1F1F1E1F1E1F000045
:1027700007801FE0102010201020102010201020B3
:102780001020102010201FE00000000000000000BA
:1027900007801FE010201020102010201020102093
:1027A0001020102017A01FE0000000000000000013
:1027B00007801FE010201020102010201020102073
:1027C000102017A017A01FE000000000000000006C
:1027D00007801FE010201020102010201020102053
:1027E00017A017A017A01FE00000000000000000C5
:1027F00007801FE01020102010201020102017A0AC
:1028000017A017A017A01FE00000000000000000A4
:1028100007801FE0102010201020102017A017A004
:1028200017A017A017A01FE0000000000000000084
:1028300007801FE010201020102017A017A017A05D
:1028400017A017A017A01FE0000000000000000064
:1028500007801FE01020102017A017A017A017A0B6
:1028600017A017A017A01FE0000000000000000044
:1028700007801FE0102017A017A017A017A017A00F
:1028800017A017A017A01FE0000000000000000024
:1028900007801FE017A017A017A017A017A017A068
:1028A00017A017A017A01FE0000000000000000004
:1028B00007801FE0102010A01120122017A0112067
:1028C0001220142010201FE0000000000000000073
:1028D0007F80210012000C000C000C000C000C008A
:1028E0000C000D000D0000000000000000000000C2
:1028F0007F80210012000C000C000C000C000C402A
:102900000C400D400D4000000000000000000000E1
:102910007F80210012000C000C000C100C100C50D9
:102920000C500D500D500000000000000000000091
:102930007F84210412040C040C040C140C140C5499
:102940000C540D540D540000000000000000005411
:10295000545494244890204080000000001919022B
:102960000419021C011E001F0000000000000000EE
:1029700004000600250014800D00060006000D006E
:102980001480250006000400000000000000000084
:1029900004000600250014800D00360036000D00EE
:1029A0001480250006000400000000000000000064
:1029B00000000840102027900940112011201F20FE
:1029C0001020084007800000000000000000000008
:1029D00000007C0047FC540444047C0410041004F0
:1029E00010041FFC10C013F00000000000000000E5
:1029F000000044002BFC10042804440410041004BC
:102A000010041FFC00C003F00000000000000000E4
:102A1000000000000000002F000000000700070079
:102A200000147F147F1400242A7F2A120062640895
:102A30001323003649552250000005030000000012
:102A40001C224100000041221C000014083E081412
:102A50000008083E0808000000A060000008080800
:102A60000808000060600000002010080402003E1A
:102A70005149453E0000427F4000004261514946B5
:102A8000002141454B31001814127F1000274545A5
:102A90004539003C4A4949300001710905030036B7
:102AA0004949493600064949291E000036360000CA
:102AB00000005636000000081422410000141414CF
:102AC00014140000412214080002015109060032CA
:102AD0004959513E007C1211127C007F4949493608
:102AE000003E41414122007F4141221C007F494973
:102AF0004941007F09090901003E4149497A007FA7
:102B00000808087F0000417F4100002040413F014C
:102B1000007F08142241007F40404040007F020CAB
:102B2000027F007F0408107F003E4141413E007F4C
:102B300009090906003E4151215E007F0919294615
:102B40000046494949310001017F0101003F4040F1
:102B5000403F001F2040201F003F4038403F00639F
:102B600014081463000708700807006151494543C1
:102B700000007F41410000552A552A55000041417F
:102B80007F00000402010204004040404040000079
:102B900001020400002054545478007F4844443813
:102BA00000384444442000384444487F003854549A
:102BB000541800087E0901020018A4A4A47C007F18
:102BC000080404780000447D4000004080847D00BB
:102BD000007F102844000000417F4000007C041862
:102BE0000478007C0804047800384444443800FC2D
:102BF000242424180018242418FC007C0804040849
:102C000000485454542000043F444020003C4040BD
:102C1000207C001C2040201C003C4030403C0044F4
:102C200028102844001CA0A0A07C004464544C44FC
:102C3000141414141414000000000000000000001C
:102C4000000000000000000000F80000000000008C
:102C500000333000000000100C06100C06000000CD
:102C600000000000000040C07840C0784000043FF1
:102C700004043F040400007088FC083000000018C1
:102C800020FF211E0000F008F000E01800000021E5
:102C90001C031E211E0000F00888700000001E2189
:102CA00023241927211010160E0000000000000038
:102CB000000000000000000000E018040200000016
:102CC00000071820400000020418E0000000004047
:102CD000201807000000404080F0804040000202C1
:102CE000010F01020200000000F0000000000101DD
:102CF000011F01010100000000000000000080B081
:102D00007000000000000000000000000000000152
:102D1000010101010101000000000000000000307D
:102D20003000000000000000000080601804006017
:102D300018060100000000E010080810E000000F75
:102D4000102020100F00001010F8000000000020DC
:102D5000203F202000000070080808887000003024
:102D600028242221300000300888884830000018CC
:102D7000202020110E000000C02010F800000007E5
:102D80000424243F240000F808888808080000195B
:102D9000212020110E0000E0108888180000000F8C
:102DA000112020110E0000380808C8380800000063
:102DB000003F000000000070880808887000001CB8
:102DC000222121221C0000E010080810E000000071
:102DD000312222110F00000000C0C00000000000DE
:102DE0000030300000000000008000000000000003
:102DF00080600000000000008040201008000001FA
:102E000002040810200040404040404040000404BC
:102E10000404040404000008102040800000002086
:102E2000100804020100007048080808F0000000C3
:102E3000003036010000C030C828E810E000071854
:102E4000272423140B000000C038E0000000203CC1
:102E500023020227382008F8888888700000203F65
:102E6000202020110E00C03008080808380007187C
:102E700020202010080008F808080810E000203F73
:102E8000202020100F0008F88888E8081000203F54
:102E900020202320180008F88888E8081000203F28
:102EA000200003000000C0300808083800000718A0
:102EB0002020221E020008F808000008F808203F21
:102EC000210101213F20000808F808080000002027
:102ED000203F2020000000000808F8080800C080FB
:102EE00080807F00000008F888C028180800203F74
:102EF00020012638200008F8080000000000203FCC
:102F000020202020300008F8F800F8F80800203FC2
:102F1000003F003F200008F830C00008F808203FBC
:102F2000200007183F00E01008080810E0000F100C
:102F3000202020100F0008F808080808F000203FA3
:102F4000210101010000E01008080810E0000F183E
:102F5000242438504F0008F8888888887000203F63
:102F60002000030C30200070880808083800003862
:102F7000202121221C00180808F808081800000069
:102F8000203F2000000008F808000008F808001F93
:102F9000202020201F000878880000C83808000082
:102FA00007380E010000F80800F80008F800033C9C
:102FB0000700073C03000818688080681808203064
:102FC0002C03032C30200838C800C8380800000043
:102FD000203F2000000010080808C83808002038EA
:102FE000262120201800000000FE0202020000003E
:102FF000007F40404000000C30C000000000000096
:1030000000010638C00000020202FE00000000407D
:1030100040407F00000000000402020204000000A3
:1030200000000000000000000000000000008080A0
:103030008080808080800002020400000000000088
:103040000000000000000000808080800000001967
:10305000242222223F2008F8008080000000003F48
:10306000112020110E000000008080800000000E62
:10307000112020201100000000808088F800000E40
:10308000112020103F200000808080800000001F61
:10309000222222221300008080F0888888180020D5
:1030A000203F202000000000808080808000006B96
:1030B0009494949360001060028C00FE02F202FE71
:1030C00000F800FF000004047E018047300F102745
:1030D0000047807F0000404042CC0090909090904C
:1030E000FF10111610000000003F1028603F101064
:1030F000010E3040F0001010D0FF9014E4AFA4A4F3
:10310000A4AFE4040000040300FF00894B2A1A0E58
:103110001A2A4B888000101090909090901010FF09
:10312000101011161000002060203F101010000336
:103130000C102040F8002030AC6320180004040478
:10314000FC04040400002267221212124040404096
:103150007F404040400000C0301F1010F00000FFD2
:10316000204080000000814021120C03000000FF7D
:103170000000000300002010EC27F42CE000229255
:103180000ED2221E000080601F093F89FF000A093D
:1031900009FF090908000484E45C44C40002F282C7
:1031A0008282FE80800002017F10103F0008080824
:1031B000084888403F00000000F010101010FF1079
:1031C000101010F000000000000F04040404FF04BD
:1031D0000404040F000000000000000000000000D4
:1031E0000000000000000000182424180000000067
:1031F0000000000000000000001C3663636363638E
:103200006363361C00000000000C3C3C0C0C0C0CF2
:103210000C0C0C0000000000003C7E46060E1C302A
:10322000607E7E0000000000007C7E06063C3C06BE
:10323000067E7C000000000000060E1E3E76E6FFC3
:10324000FF06060000000000007E7E60607C7E06B7
:10325000067E780000000000003C7C60C0DCFEC6FA
:10326000C67E380000000000007E7E040C0C18189A
:103270001030300000000000003C7E66663C3C667A
:10328000667E3C0000000000003C3C6666667E36C0
:103290000E3C38000000000000000000000000802C
:1032A000808080800000000000000000000000001E
:1032B000000000000000000080808080800000008E
:1032C00000000000000080E0F0FCFCFE3F1F1F0F2C
:1032D0000F0F0F0F1F1F1F3E7EFCFCF8F0C0C0F049
:1032E000F8F8FC7E3E3F1F1F0F8F8F0F0F1F1F3FF1
:1032F0007EFCFCFBE3C37FFFFFFFFFC000000C1C54
:103300001C1C1C1C1C1C000080C0F3FFFFFFFFFFE7
:10331000FFF3C08000001C1C7F7F7F1E1C0C000080
:1033200080F3FFFFFFFF0001070F0F1F3F3E3E7CB2
:103330007C7C7C7C7C3E3E3F1F0F0F07030100031B
:10334000070F0F1F1F3E3E7C7C7C7C7C7C3E3E3FFB
:103350001F0F0F07010000C0F8FE7EFCF000FEFE0C
:1033600076FEFC9CFCFEFEC6FEFC30FEFEC0C0FEEF
:10337000FE0086FEFEFE8684FEFE3CF8FEFE30FC6D
:10338000FEC6FEFC78000000010000000100000104
:103390000000010000010101000000000001010027
:1033A0000000010101010100000100000101000015
:1033B00000010100000030313233343536373839FE
:1033C0004142434445464030580030313233343571
:1033D00036373839616263646566403078000400CE
:1033E00000080000000000000002000100001000C2
:1033F00057656400467269004D6F6E0053756E002C
:103400005468720054757300536174002C340008C2
:10341000000000209C0B000028010008183900085B
:103420009C0B0020A40600008C010008B0080000DE
:103430008200F401000120A1610C850CA80CCB0CCA
:10344000EC0C0D0D2D0D4C0D6A0D870DA40DBF0D4F
:10345000D90DF20D060E240E3B0E500E660E7A0E9E
:103460003C0C160CF00BC80BA10B770B4F0B260B6B
:10347000FB0AD00AA40A790A4C0A200AF309C609F1
:1034800098096B093E090B09E308B5088608580836
:103490002D080008D307A6077A074E072307F6066C
:1034A000CE06A5067A064D0629060006D905B20500
:1034B0008D05670543051D05FD04DC04B704920472
:1034C0007704570437041B04FD03E103C403AA0374
:1034D0008E0373035D034303A421B4210420053D3F
:1034E000260008B4520A04C3691310437510106112
:1034F00030C3691C20129930120520100AF83300DD
:103500000804340008F00812000812F41012080829
:1035100012FC082008E307051D03131D472004FEC5
:10352000929203341600424AD26A46C00040C44414
:10353000443F2424240040807F004613C0382610D6
:1035400007FF00004020185E301A80814020100CD8
:103550000300030C1020408080002424A4FEA3223A
:103560000022CC24200A0000080601FF000104010B
:103570001011FF02020200101010FF10900888883E
:1035800088FF04201208000444827F0180804043A9
:103590002C102846818061640980C0E0F0F8FCFEB0
:1035A000FEAD000A130103070F1F3F7F7F000112CA
:1035B000E02B10131F0F0707071FFEFEFCF0000093
:1035C0001F7FFFFFF0C0015006F0FF7F3F0F423129
:1035D00001011440A00B0000383C1C1EFEFFFFFF41
:1035E00056D2FF10011940131E0E7D240807078FC5
:1035F000FFFEFE781F11BC700ADCCECFC7C3C3C16B
:10360000C0C07C02190183130E87014006CFFFFE64
:103610007E3CD123C0C30163E7FE11021C01BF152C
:10362000316005E0F0783EB220093C3E3F3F3B3937
:1036300038381003213838C212F8EC22C70133871A
:10364000071033E1C101000621E3FFFF7F1E802147
:10365000F03004BE8ECF41478F0080C2E341051B8E
:1036600080353D40080787E7F7FF7F1F8104092267
:103670000080F8FEFF3F07017D25BF44057EFEFF69
:10368000CF41299A123C0F36E7417552011B801A2F
:10369000F06A368FC14940340400E1C30E1BE3F3E6
:1036A000400623078000071900183C3C3C18100115
:1036B00059011C093E3E2321311F1FCE330338061A
:1036C000381C0C0E06BE16FCD3BA83BF1703036862
:1036D00012060109123E1C06FCFE7E0E7E3D032DE5
:1036E0007E0312F03C74103F3B3838383B3FFFFFFD
:1036F000FEF0C0030303ABA2030D7D2B0312FE01FA
:10370000120E015C069EFEFCFC783B034A87D33117
:10371000118203010A1401BD4006F87C3C1E0E0113
:103720004E1EC0034004E0C080015AC0820117420F
:10373000617E20090E1E1E7CFCF8F0C07E413A130B
:10374000E0F0CA920F7D09150171427F0E0EFB0356
:1037500031C0738780F651C001274049D5051A361C
:103760000515006E1CC0042E8015045DD303061DD4
:103770000100A58A817E2307078AA5B401188A0E55
:1037800038FFFF04F1422EE07D051EE03E040E22CC
:103790001F7D0551C22E8047042B7E1EC031B61DF1
:1037A000F1051804FFFCF80799760616018301124B
:1037B000BE42C001ADC1040D1302054C07FF1FFF3F
:1037C000FFF8E0C90422FC0D19B11DC3041C06FC5E
:1037D000F0FE7F1F8707CFFF013D050611013A501C
:1037E000073F7EF8F0E080783D86051DB2062C0488
:1037F0001F3F7C590592FF740113812C06F0FCFCDD
:103800003E0EBF06100A070F0F3EFEFCF83F7F8FEB
:1038100045435404E0F87F440D1AC00475F11D813E
:1038200006ABFCF87F4D2E030D1DBB04D17FA2E03B
:103830007F8405FFFF1F0F404D4304011B802D01B6
:1038400007511014070F3F7FFDF9F0C091F50513E4
:10385000811E7880051FCFC76E03150235111C0429
:10386000E0E1C1FF064C05C7E7FFFF11070D1B3C58
:10387000075D40067D74030D2FBF07A93C2D33075C
:103880005D7F0429C36AF0C40D1ABE077B0F7F4019
:103890001D49072D71081F010F3A051FF8F0C306D7
:1038A000A20FF90D1880081E80A904198622FE4671
:1038B0001FE0FF8105227F39220789D7FEFF3FF9EC
:1038C000401701036A1EFE2A031DC8062C053F1F70
:1038D0000F03490319BB10040F0F1F161997061D7C
:1038E00001801A01AA2DE8051280785F3F1F750735
:1038F0003E033A040D2500043D6B043EC7C0071E7D
:103900000F30071D78051EFC91075FC7C380030EAB
:083910001A010109000000008A
:04000005080000ED02
:00000001FF
